{
  "abi": [
    {
      "inputs": [
        {
          "internalType": "uint256",
          "name": "x",
          "type": "uint256"
        },
        {
          "internalType": "uint256",
          "name": "y",
          "type": "uint256"
        }
      ],
      "name": "getBoardColor",
      "outputs": [
        {
          "internalType": "uint256",
          "name": "",
          "type": "uint256"
        }
      ],
      "stateMutability": "view",
      "type": "function"
    },
    {
      "inputs": [],
      "name": "setBoardColors",
      "outputs": [],
      "stateMutability": "nonpayable",
      "type": "function"
    }
  ],
  "bytecode": {
    "object": "0x6080604052600060015534801561001557600080fd5b50610303806100256000396000f3fe608060405234801561001057600080fd5b50600436106100365760003560e01c80632b0d60131461003b578063b79d639f14610060575b600080fd5b61004e610049366004610262565b61006a565b60405190815260200160405180910390f35b6100686100a1565b005b600060078310801561007c5750600582105b61008557600080fd5b5060009182526020828152604080842092845291905290205490565b60005b600781101561025f5760005b600581101561024c57600180549060006100c983610284565b919050555060006004423360015460405160200161010c9392919092835260609190911b6bffffffffffffffffffffffff19166020830152603482015260540190565b6040516020818303038152906040528051906020012060001c61012f91906102ab565b905061013c6002846102ab565b158015610151575061014f6002836102ab565b155b156101715760008381526020818152604080832085845290915290208190555b61017c6002846102ab565b158015610193575061018f6002836102ab565b6001145b156101b35760008381526020818152604080832085845290915290208190555b6101be6002846102ab565b60011480156101d557506101d36002836102ab565b155b156101f55760008381526020818152604080832085845290915290208190555b6102006002846102ab565b600114801561021957506102156002836102ab565b6001145b156102395760008381526020818152604080832085845290915290208190555b508061024481610284565b9150506100b0565b508061025781610284565b9150506100a4565b50565b6000806040838503121561027557600080fd5b50508035926020909101359150565b6000600182016102a457634e487b7160e01b600052601160045260246000fd5b5060010190565b6000826102c857634e487b7160e01b600052601260045260246000fd5b50069056fea26469706673582212207e68bbcb599d91b108a526b52ff5a55ffe2f22c60c8a566ee8613242e76fda4164736f6c63430008130033",
    "linkReferences": {}
  },
  "methodIdentifiers": {
    "getBoardColor(uint256,uint256)": "2b0d6013",
    "setBoardColors()": "b79d639f"
  },
  "id": 0
}