{
  "_format": "hh-sol-artifact-1",
  "contractName": "ColorBoard",
  "sourceName": "contracts/ColorBoard.sol",
  "abi": [
    {
      "inputs": [
        {
          "internalType": "uint256",
          "name": "x",
          "type": "uint256"
        },
        {
          "internalType": "uint256",
          "name": "y",
          "type": "uint256"
        }
      ],
      "name": "getBoardColor",
      "outputs": [
        {
          "internalType": "uint256",
          "name": "",
          "type": "uint256"
        }
      ],
      "stateMutability": "view",
      "type": "function"
    },
    {
      "inputs": [],
      "name": "setBoardColors",
      "outputs": [],
      "stateMutability": "nonpayable",
      "type": "function"
    }
  ],
  "bytecode": "0x6080604052600060015534801561001557600080fd5b5061053a806100256000396000f3fe608060405234801561001057600080fd5b50600436106100365760003560e01c80632b0d60131461003b578063b79d639f1461006b575b600080fd5b610055600480360381019061005091906102ea565b610075565b6040516100629190610339565b60405180910390f35b6100736100bc565b005b60006007831080156100875750600582105b61009057600080fd5b600080848152602001908152602001600020600083815260200190815260200160002054905092915050565b60005b60078110156102ac5760005b600581101561029857600160008154809291906100e790610383565b919050555060006004423360015460405160200161010793929190610467565b6040516020818303038152906040528051906020012060001c61012a91906104d3565b9050600060028461013b91906104d3565b1480156101545750600060028361015291906104d3565b145b1561018257806000808581526020019081526020016000206000848152602001908152602001600020819055505b600060028461019191906104d3565b1480156101aa575060016002836101a891906104d3565b145b156101d857806000808581526020019081526020016000206000848152602001908152602001600020819055505b60016002846101e791906104d3565b148015610200575060006002836101fe91906104d3565b145b1561022e57806000808581526020019081526020016000206000848152602001908152602001600020819055505b600160028461023d91906104d3565b1480156102565750600160028361025491906104d3565b145b1561028457806000808581526020019081526020016000206000848152602001908152602001600020819055505b50808061029090610383565b9150506100cb565b5080806102a490610383565b9150506100bf565b50565b600080fd5b6000819050919050565b6102c7816102b4565b81146102d257600080fd5b50565b6000813590506102e4816102be565b92915050565b60008060408385031215610301576103006102af565b5b600061030f858286016102d5565b9250506020610320858286016102d5565b9150509250929050565b610333816102b4565b82525050565b600060208201905061034e600083018461032a565b92915050565b7f4e487b7100000000000000000000000000000000000000000000000000000000600052601160045260246000fd5b600061038e826102b4565b91507fffffffffffffffffffffffffffffffffffffffffffffffffffffffffffffffff8214156103c1576103c0610354565b5b600182019050919050565b6000819050919050565b6103e76103e2826102b4565b6103cc565b82525050565b600073ffffffffffffffffffffffffffffffffffffffff82169050919050565b6000610418826103ed565b9050919050565b60008160601b9050919050565b60006104378261041f565b9050919050565b60006104498261042c565b9050919050565b61046161045c8261040d565b61043e565b82525050565b600061047382866103d6565b6020820191506104838285610450565b60148201915061049382846103d6565b602082019150819050949350505050565b7f4e487b7100000000000000000000000000000000000000000000000000000000600052601260045260246000fd5b60006104de826102b4565b91506104e9836102b4565b9250826104f9576104f86104a4565b5b82820690509291505056fea26469706673582212201b2e60e6c7ed5461fdf8a866fffc5734e3854defc72469fe3ca7290aae757bf464736f6c63430008080033",
  "linkReferences": {},
  "deployedLinkReferences": {}
}