{
  "abi": [
    {
      "inputs": [],
      "stateMutability": "nonpayable",
      "type": "constructor"
    },
    {
      "inputs": [
        {
          "internalType": "uint256",
          "name": "",
          "type": "uint256"
        },
        {
          "internalType": "uint256",
          "name": "",
          "type": "uint256"
        }
      ],
      "name": "board",
      "outputs": [
        {
          "internalType": "uint256",
          "name": "",
          "type": "uint256"
        }
      ],
      "stateMutability": "view",
      "type": "function"
    },
    {
      "inputs": [
        {
          "internalType": "uint256",
          "name": "x",
          "type": "uint256"
        },
        {
          "internalType": "uint256",
          "name": "y",
          "type": "uint256"
        }
      ],
      "name": "getColor",
      "outputs": [
        {
          "internalType": "string",
          "name": "",
          "type": "string"
        }
      ],
      "stateMutability": "view",
      "type": "function"
    },
    {
      "inputs": [
        {
          "internalType": "uint256",
          "name": "x",
          "type": "uint256"
        },
        {
          "internalType": "uint256",
          "name": "y",
          "type": "uint256"
        },
        {
          "internalType": "uint256",
          "name": "colorIndex",
          "type": "uint256"
        }
      ],
      "name": "setColor",
      "outputs": [],
      "stateMutability": "nonpayable",
      "type": "function"
    }
  ],
  "bytecode": {
    "object": "0x608060405234801561001057600080fd5b50604080518082019091526005815264776869746560d81b6020808301919091526001600090815290527fada5013122d395ba3c54772283fb069b10426056ef8ca54750cb9bb552a59e7d906100669082610206565b50604080518082019091526005815264626c61636b60d81b6020808301919091526002600090815290527fabbb5caa7dda850e60932de0934eb1f9d0f59695050f761dc64e443e5030a569906100bc9082610206565b50604080518082019091526003808252621c995960ea1b6020808401919091526000918252527f101e368776582e57ab3d116ffe2517c0a585cd5b23174b01e275c2d8329c3d839061010e9082610206565b5060408051808201909152600480825263626c756560e01b6020808401919091526000918252527f52d75039926638d3c558b2bdefb945d5be8dae29dedd1c313212a4d472d9fde5906101619082610206565b506102c5565b634e487b7160e01b600052604160045260246000fd5b600181811c9082168061019157607f821691505b6020821081036101b157634e487b7160e01b600052602260045260246000fd5b50919050565b601f82111561020157600081815260208120601f850160051c810160208610156101de5750805b601f850160051c820191505b818110156101fd578281556001016101ea565b5050505b505050565b81516001600160401b0381111561021f5761021f610167565b6102338161022d845461017d565b846101b7565b602080601f83116001811461026857600084156102505750858301515b600019600386901b1c1916600185901b1785556101fd565b600085815260208120601f198616915b8281101561029757888601518255948401946001909101908401610278565b50858210156102b55787850151600019600388901b60f8161c191681555b5050505050600190811b01905550565b610400806102d46000396000f3fe608060405234801561001057600080fd5b50600436106100415760003560e01c80638086a92a14610046578063eded5d9e1461006c578063fbedb9801461008c575b600080fd5b6100596100543660046102de565b6100a1565b6040519081526020015b60405180910390f35b61007f61007a3660046102de565b6100cc565b6040516100639190610300565b61009f61009a36600461034e565b6101f7565b005b600182600581106100b157600080fd5b6007020181600781106100c357600080fd5b01549150829050565b60606007831080156100de5750600582105b61012b5760405162461bcd60e51b8152602060048201526019602482015278436f6f7264696e61746573206f7574206f6620626f756e647360381b60448201526064015b60405180910390fd5b600080600185600581106101415761014161037a565b6007020184600781106101565761015661037a565b01548152602001908152602001600020805461017190610390565b80601f016020809104026020016040519081016040528092919081815260200182805461019d90610390565b80156101ea5780601f106101bf576101008083540402835291602001916101ea565b820191906000526020600020905b8154815290600101906020018083116101cd57829003601f168201915b5050505050905092915050565b6007831080156102075750600582105b61024f5760405162461bcd60e51b8152602060048201526019602482015278436f6f7264696e61746573206f7574206f6620626f756e647360381b6044820152606401610122565b6000818152602081905260409020805461026890610390565b90506000036102ae5760405162461bcd60e51b8152602060048201526012602482015271092dcecc2d8d2c840c6ded8dee492dcc8caf60731b6044820152606401610122565b80600184600581106102c2576102c261037a565b6007020183600781106102d7576102d761037a565b0155505050565b600080604083850312156102f157600080fd5b50508035926020909101359150565b600060208083528351808285015260005b8181101561032d57858101830151858201604001528201610311565b506000604082860101526040601f19601f8301168501019250505092915050565b60008060006060848603121561036357600080fd5b505081359360208301359350604090920135919050565b634e487b7160e01b600052603260045260246000fd5b600181811c908216806103a457607f821691505b6020821081036103c457634e487b7160e01b600052602260045260246000fd5b5091905056fea26469706673582212200d2ae5f0801754fcdd66383b8b270f141d7786bbfe6da2d87a76a9a57407547964736f6c63430008130033",
    "linkReferences": {}
  },
  "methodIdentifiers": {
    "board(uint256,uint256)": "8086a92a",
    "getColor(uint256,uint256)": "eded5d9e",
    "setColor(uint256,uint256,uint256)": "fbedb980"
  },
  "id": 1
}